{
	"contracts/Title.sol": {
		"TitleRegistry": {
			"abi": [
				{
					"inputs": [
						{
							"internalType": "address",
							"name": "initialOwner",
							"type": "address"
						}
					],
					"stateMutability": "nonpayable",
					"type": "constructor"
				},
				{
					"inputs": [
						{
							"internalType": "address",
							"name": "owner",
							"type": "address"
						}
					],
					"name": "OwnableInvalidOwner",
					"type": "error"
				},
				{
					"inputs": [
						{
							"internalType": "address",
							"name": "account",
							"type": "address"
						}
					],
					"name": "OwnableUnauthorizedAccount",
					"type": "error"
				},
				{
					"anonymous": false,
					"inputs": [
						{
							"indexed": true,
							"internalType": "address",
							"name": "previousOwner",
							"type": "address"
						},
						{
							"indexed": true,
							"internalType": "address",
							"name": "newOwner",
							"type": "address"
						}
					],
					"name": "OwnershipTransferred",
					"type": "event"
				},
				{
					"inputs": [
						{
							"internalType": "address",
							"name": "",
							"type": "address"
						}
					],
					"name": "isRegistered",
					"outputs": [
						{
							"internalType": "bool",
							"name": "",
							"type": "bool"
						}
					],
					"stateMutability": "view",
					"type": "function"
				},
				{
					"inputs": [],
					"name": "owner",
					"outputs": [
						{
							"internalType": "address",
							"name": "",
							"type": "address"
						}
					],
					"stateMutability": "view",
					"type": "function"
				},
				{
					"inputs": [
						{
							"internalType": "address",
							"name": "_voter",
							"type": "address"
						},
						{
							"internalType": "string",
							"name": "_city",
							"type": "string"
						}
					],
					"name": "registerVoter",
					"outputs": [],
					"stateMutability": "nonpayable",
					"type": "function"
				},
				{
					"inputs": [],
					"name": "renounceOwnership",
					"outputs": [],
					"stateMutability": "nonpayable",
					"type": "function"
				},
				{
					"inputs": [
						{
							"internalType": "address",
							"name": "newOwner",
							"type": "address"
						}
					],
					"name": "transferOwnership",
					"outputs": [],
					"stateMutability": "nonpayable",
					"type": "function"
				},
				{
					"inputs": [
						{
							"internalType": "address",
							"name": "",
							"type": "address"
						}
					],
					"name": "voterToCity",
					"outputs": [
						{
							"internalType": "string",
							"name": "",
							"type": "string"
						}
					],
					"stateMutability": "view",
					"type": "function"
				}
			],
			"devdoc": {
				"errors": {
					"OwnableInvalidOwner(address)": [
						{
							"details": "The owner is not a valid owner account. (eg. `address(0)`)"
						}
					],
					"OwnableUnauthorizedAccount(address)": [
						{
							"details": "The caller account is not authorized to perform an operation."
						}
					]
				},
				"kind": "dev",
				"methods": {
					"owner()": {
						"details": "Returns the address of the current owner."
					},
					"renounceOwnership()": {
						"details": "Leaves the contract without owner. It will not be possible to call `onlyOwner` functions. Can only be called by the current owner. NOTE: Renouncing ownership will leave the contract without an owner, thereby disabling any functionality that is only available to the owner."
					},
					"transferOwnership(address)": {
						"details": "Transfers ownership of the contract to a new account (`newOwner`). Can only be called by the current owner."
					}
				},
				"version": 1
			},
			"evm": {
				"assembly": "    /* \"contracts/Title.sol\":117:501  contract TitleRegistry is Ownable {... */\n  mstore(0x40, 0x80)\n    /* \"contracts/Title.sol\":263:327  constructor(address initialOwner) ... */\n  callvalue\n  dup1\n  iszero\n  tag_1\n  jumpi\n  0x00\n  dup1\n  revert\ntag_1:\n  pop\n  mload(0x40)\n  sub(codesize, bytecodeSize)\n  dup1\n  bytecodeSize\n  dup4\n  codecopy\n  dup2\n  add\n  0x40\n  dup2\n  swap1\n  mstore\n  tag_2\n  swap2\n  tag_3\n  jump\t// in\ntag_2:\n    /* \"contracts/Title.sol\":311:323  initialOwner */\n  dup1\n  sub(shl(0xa0, 0x01), 0x01)\n    /* \"@openzeppelin/contracts/access/Ownable.sol\":1273:1299  initialOwner == address(0) */\n  dup2\n  and\n    /* \"@openzeppelin/contracts/access/Ownable.sol\":1269:1364  if (initialOwner == address(0)) {... */\n  tag_7\n  jumpi\n    /* \"@openzeppelin/contracts/access/Ownable.sol\":1322:1353  OwnableInvalidOwner(address(0)) */\n  mload(0x40)\n  shl(0xe0, 0x1e4fbdf7)\n  dup2\n  mstore\n    /* \"@openzeppelin/contracts/access/Ownable.sol\":1350:1351  0 */\n  0x00\n    /* \"@openzeppelin/contracts/access/Ownable.sol\":1322:1353  OwnableInvalidOwner(address(0)) */\n  0x04\n  dup3\n  add\n    /* \"#utility.yul\":455:506   */\n  mstore\n    /* \"#utility.yul\":428:446   */\n  0x24\n  add\n    /* \"@openzeppelin/contracts/access/Ownable.sol\":1322:1353  OwnableInvalidOwner(address(0)) */\n  mload(0x40)\n  dup1\n  swap2\n  sub\n  swap1\n  revert\n    /* \"@openzeppelin/contracts/access/Ownable.sol\":1269:1364  if (initialOwner == address(0)) {... */\ntag_7:\n    /* \"@openzeppelin/contracts/access/Ownable.sol\":1373:1405  _transferOwnership(initialOwner) */\n  tag_10\n    /* \"@openzeppelin/contracts/access/Ownable.sol\":1392:1404  initialOwner */\n  dup2\n    /* \"@openzeppelin/contracts/access/Ownable.sol\":1373:1391  _transferOwnership */\n  tag_11\n    /* \"@openzeppelin/contracts/access/Ownable.sol\":1373:1405  _transferOwnership(initialOwner) */\n  jump\t// in\ntag_10:\n    /* \"@openzeppelin/contracts/access/Ownable.sol\":1225:1412  constructor(address initialOwner) {... */\n  pop\n    /* \"contracts/Title.sol\":263:327  constructor(address initialOwner) ... */\n  pop\n    /* \"contracts/Title.sol\":117:501  contract TitleRegistry is Ownable {... */\n  jump(tag_15)\n    /* \"@openzeppelin/contracts/access/Ownable.sol\":2912:3099  function _transferOwnership(address newOwner) internal virtual {... */\ntag_11:\n    /* \"@openzeppelin/contracts/access/Ownable.sol\":2985:3001  address oldOwner */\n  0x00\n    /* \"@openzeppelin/contracts/access/Ownable.sol\":3004:3010  _owner */\n  dup1\n  sload\n  sub(shl(0xa0, 0x01), 0x01)\n    /* \"@openzeppelin/contracts/access/Ownable.sol\":3020:3037  _owner = newOwner */\n  dup4\n  dup2\n  and\n  not(sub(shl(0xa0, 0x01), 0x01))\n  dup4\n  and\n  dup2\n  or\n  dup5\n  sstore\n    /* \"@openzeppelin/contracts/access/Ownable.sol\":3052:3092  OwnershipTransferred(oldOwner, newOwner) */\n  mload(0x40)\n    /* \"@openzeppelin/contracts/access/Ownable.sol\":3004:3010  _owner */\n  swap2\n  swap1\n  swap3\n  and\n  swap3\n  dup4\n  swap2\n    /* \"@openzeppelin/contracts/access/Ownable.sol\":3052:3092  OwnershipTransferred(oldOwner, newOwner) */\n  0x8be0079c531659141344cd1fd0a4f28419497f9722a3daafe3b4186f6b6457e0\n  swap2\n    /* \"@openzeppelin/contracts/access/Ownable.sol\":2985:3001  address oldOwner */\n  swap1\n    /* \"@openzeppelin/contracts/access/Ownable.sol\":3052:3092  OwnershipTransferred(oldOwner, newOwner) */\n  log3\n    /* \"@openzeppelin/contracts/access/Ownable.sol\":2975:3099  {... */\n  pop\n    /* \"@openzeppelin/contracts/access/Ownable.sol\":2912:3099  function _transferOwnership(address newOwner) internal virtual {... */\n  pop\n  jump\t// out\n    /* \"#utility.yul\":14:304   */\ntag_3:\n    /* \"#utility.yul\":84:90   */\n  0x00\n    /* \"#utility.yul\":137:139   */\n  0x20\n    /* \"#utility.yul\":125:134   */\n  dup3\n    /* \"#utility.yul\":116:123   */\n  dup5\n    /* \"#utility.yul\":112:135   */\n  sub\n    /* \"#utility.yul\":108:140   */\n  slt\n    /* \"#utility.yul\":105:157   */\n  iszero\n  tag_17\n  jumpi\n    /* \"#utility.yul\":153:154   */\n  0x00\n    /* \"#utility.yul\":150:151   */\n  dup1\n    /* \"#utility.yul\":143:155   */\n  revert\n    /* \"#utility.yul\":105:157   */\ntag_17:\n    /* \"#utility.yul\":179:195   */\n  dup2\n  mload\n  sub(shl(0xa0, 0x01), 0x01)\n    /* \"#utility.yul\":224:255   */\n  dup2\n  and\n    /* \"#utility.yul\":214:256   */\n  dup2\n  eq\n    /* \"#utility.yul\":204:274   */\n  tag_18\n  jumpi\n    /* \"#utility.yul\":270:271   */\n  0x00\n    /* \"#utility.yul\":267:268   */\n  dup1\n    /* \"#utility.yul\":260:272   */\n  revert\n    /* \"#utility.yul\":204:274   */\ntag_18:\n    /* \"#utility.yul\":293:298   */\n  swap4\n    /* \"#utility.yul\":14:304   */\n  swap3\n  pop\n  pop\n  pop\n  jump\t// out\n    /* \"#utility.yul\":309:512   */\ntag_15:\n    /* \"contracts/Title.sol\":117:501  contract TitleRegistry is Ownable {... */\n  dataSize(sub_0)\n  dup1\n  dataOffset(sub_0)\n  0x00\n  codecopy\n  0x00\n  return\nstop\n\nsub_0: assembly {\n        /* \"contracts/Title.sol\":117:501  contract TitleRegistry is Ownable {... */\n      mstore(0x40, 0x80)\n      callvalue\n      dup1\n      iszero\n      tag_1\n      jumpi\n      0x00\n      dup1\n      revert\n    tag_1:\n      pop\n      jumpi(tag_2, lt(calldatasize, 0x04))\n      shr(0xe0, calldataload(0x00))\n      dup1\n      0xc3c5a547\n      gt\n      tag_9\n      jumpi\n      dup1\n      0xc3c5a547\n      eq\n      tag_6\n      jumpi\n      dup1\n      0xebbb4f84\n      eq\n      tag_7\n      jumpi\n      dup1\n      0xf2fde38b\n      eq\n      tag_8\n      jumpi\n      0x00\n      dup1\n      revert\n    tag_9:\n      dup1\n      0x2146671f\n      eq\n      tag_3\n      jumpi\n      dup1\n      0x715018a6\n      eq\n      tag_4\n      jumpi\n      dup1\n      0x8da5cb5b\n      eq\n      tag_5\n      jumpi\n    tag_2:\n      0x00\n      dup1\n      revert\n        /* \"contracts/Title.sol\":209:254  mapping(address => string) public voterToCity */\n    tag_3:\n      tag_10\n      tag_11\n      calldatasize\n      0x04\n      tag_12\n      jump\t// in\n    tag_11:\n      tag_13\n      jump\t// in\n    tag_10:\n      mload(0x40)\n      tag_14\n      swap2\n      swap1\n      tag_15\n      jump\t// in\n    tag_14:\n      mload(0x40)\n      dup1\n      swap2\n      sub\n      swap1\n      return\n        /* \"@openzeppelin/contracts/access/Ownable.sol\":2293:2394  function renounceOwnership() public virtual onlyOwner {... */\n    tag_4:\n      tag_16\n      tag_17\n      jump\t// in\n    tag_16:\n      stop\n        /* \"@openzeppelin/contracts/access/Ownable.sol\":1638:1723  function owner() public view virtual returns (address) {... */\n    tag_5:\n        /* \"@openzeppelin/contracts/access/Ownable.sol\":1684:1691  address */\n      0x00\n        /* \"@openzeppelin/contracts/access/Ownable.sol\":1710:1716  _owner */\n      sload\n        /* \"@openzeppelin/contracts/access/Ownable.sol\":1638:1723  function owner() public view virtual returns (address) {... */\n      mload(0x40)\n        /* \"@openzeppelin/contracts/access/Ownable.sol\":1710:1716  _owner */\n      0xffffffffffffffffffffffffffffffffffffffff\n      swap1\n      swap2\n      and\n        /* \"#utility.yul\":1164:1238   */\n      dup2\n      mstore\n        /* \"#utility.yul\":1152:1154   */\n      0x20\n        /* \"#utility.yul\":1137:1155   */\n      add\n        /* \"@openzeppelin/contracts/access/Ownable.sol\":1638:1723  function owner() public view virtual returns (address) {... */\n      tag_14\n        /* \"#utility.yul\":1018:1244   */\n      jump\n        /* \"contracts/Title.sol\":158:202  mapping(address => bool) public isRegistered */\n    tag_6:\n      tag_22\n      tag_23\n      calldatasize\n      0x04\n      tag_12\n      jump\t// in\n    tag_23:\n      mstore(0x20, 0x01)\n      0x00\n      swap1\n      dup2\n      mstore\n      0x40\n      swap1\n      keccak256\n      sload\n      0xff\n      and\n      dup2\n      jump\n    tag_22:\n      mload(0x40)\n        /* \"#utility.yul\":1414:1428   */\n      swap1\n      iszero\n        /* \"#utility.yul\":1407:1429   */\n      iszero\n        /* \"#utility.yul\":1389:1430   */\n      dup2\n      mstore\n        /* \"#utility.yul\":1377:1379   */\n      0x20\n        /* \"#utility.yul\":1362:1380   */\n      add\n        /* \"contracts/Title.sol\":158:202  mapping(address => bool) public isRegistered */\n      tag_14\n        /* \"#utility.yul\":1249:1436   */\n      jump\n        /* \"contracts/Title.sol\":335:498  function registerVoter(address _voter, string memory _city) external onlyOwner {... */\n    tag_7:\n      tag_16\n      tag_28\n      calldatasize\n      0x04\n      tag_29\n      jump\t// in\n    tag_28:\n      tag_30\n      jump\t// in\n        /* \"@openzeppelin/contracts/access/Ownable.sol\":2543:2758  function transferOwnership(address newOwner) public virtual onlyOwner {... */\n    tag_8:\n      tag_16\n      tag_32\n      calldatasize\n      0x04\n      tag_12\n      jump\t// in\n    tag_32:\n      tag_33\n      jump\t// in\n        /* \"contracts/Title.sol\":209:254  mapping(address => string) public voterToCity */\n    tag_13:\n      mstore(0x20, 0x02)\n      0x00\n      swap1\n      dup2\n      mstore\n      0x40\n      swap1\n      keccak256\n      dup1\n      sload\n      tag_34\n      swap1\n      tag_35\n      jump\t// in\n    tag_34:\n      dup1\n      0x1f\n      add\n      0x20\n      dup1\n      swap2\n      div\n      mul\n      0x20\n      add\n      mload(0x40)\n      swap1\n      dup2\n      add\n      0x40\n      mstore\n      dup1\n      swap3\n      swap2\n      swap1\n      dup2\n      dup2\n      mstore\n      0x20\n      add\n      dup3\n      dup1\n      sload\n      tag_36\n      swap1\n      tag_35\n      jump\t// in\n    tag_36:\n      dup1\n      iszero\n      tag_37\n      jumpi\n      dup1\n      0x1f\n      lt\n      tag_38\n      jumpi\n      0x0100\n      dup1\n      dup4\n      sload\n      div\n      mul\n      dup4\n      mstore\n      swap2\n      0x20\n      add\n      swap2\n      jump(tag_37)\n    tag_38:\n      dup3\n      add\n      swap2\n      swap1\n      0x00\n      mstore\n      keccak256(0x00, 0x20)\n      swap1\n    tag_39:\n      dup2\n      sload\n      dup2\n      mstore\n      swap1\n      0x01\n      add\n      swap1\n      0x20\n      add\n      dup1\n      dup4\n      gt\n      tag_39\n      jumpi\n      dup3\n      swap1\n      sub\n      0x1f\n      and\n      dup3\n      add\n      swap2\n    tag_37:\n      pop\n      pop\n      pop\n      pop\n      pop\n      dup2\n      jump\t// out\n        /* \"@openzeppelin/contracts/access/Ownable.sol\":2293:2394  function renounceOwnership() public virtual onlyOwner {... */\n    tag_17:\n        /* \"@openzeppelin/contracts/access/Ownable.sol\":1531:1544  _checkOwner() */\n      tag_41\n        /* \"@openzeppelin/contracts/access/Ownable.sol\":1531:1542  _checkOwner */\n      tag_42\n        /* \"@openzeppelin/contracts/access/Ownable.sol\":1531:1544  _checkOwner() */\n      jump\t// in\n    tag_41:\n        /* \"@openzeppelin/contracts/access/Ownable.sol\":2357:2387  _transferOwnership(address(0)) */\n      tag_44\n        /* \"@openzeppelin/contracts/access/Ownable.sol\":2384:2385  0 */\n      0x00\n        /* \"@openzeppelin/contracts/access/Ownable.sol\":2357:2375  _transferOwnership */\n      tag_45\n        /* \"@openzeppelin/contracts/access/Ownable.sol\":2357:2387  _transferOwnership(address(0)) */\n      jump\t// in\n    tag_44:\n        /* \"@openzeppelin/contracts/access/Ownable.sol\":2293:2394  function renounceOwnership() public virtual onlyOwner {... */\n      jump\t// out\n        /* \"contracts/Title.sol\":335:498  function registerVoter(address _voter, string memory _city) external onlyOwner {... */\n    tag_30:\n        /* \"@openzeppelin/contracts/access/Ownable.sol\":1531:1544  _checkOwner() */\n      tag_48\n        /* \"@openzeppelin/contracts/access/Ownable.sol\":1531:1542  _checkOwner */\n      tag_42\n        /* \"@openzeppelin/contracts/access/Ownable.sol\":1531:1544  _checkOwner() */\n      jump\t// in\n    tag_48:\n        /* \"contracts/Title.sol\":425:445  isRegistered[_voter] */\n      0xffffffffffffffffffffffffffffffffffffffff\n      dup3\n      and\n      0x00\n      swap1\n      dup2\n      mstore\n        /* \"contracts/Title.sol\":448:452  true */\n      0x01\n        /* \"contracts/Title.sol\":425:445  isRegistered[_voter] */\n      0x20\n      dup2\n      dup2\n      mstore\n      0x40\n      dup1\n      dup5\n      keccak256\n        /* \"contracts/Title.sol\":425:452  isRegistered[_voter] = true */\n      dup1\n      sload\n      0xffffffffffffffffffffffffffffffffffffffffffffffffffffffffffffff00\n      and\n      swap1\n      swap4\n      or\n      swap1\n      swap3\n      sstore\n        /* \"contracts/Title.sol\":463:474  voterToCity */\n      0x02\n        /* \"contracts/Title.sol\":463:482  voterToCity[_voter] */\n      swap1\n      mstore\n      swap1\n      keccak256\n        /* \"contracts/Title.sol\":463:490  voterToCity[_voter] = _city */\n      tag_50\n        /* \"contracts/Title.sol\":485:490  _city */\n      dup3\n        /* \"contracts/Title.sol\":463:482  voterToCity[_voter] */\n      dup3\n        /* \"contracts/Title.sol\":463:490  voterToCity[_voter] = _city */\n      tag_51\n      jump\t// in\n    tag_50:\n      pop\n        /* \"contracts/Title.sol\":335:498  function registerVoter(address _voter, string memory _city) external onlyOwner {... */\n      pop\n      pop\n      jump\t// out\n        /* \"@openzeppelin/contracts/access/Ownable.sol\":2543:2758  function transferOwnership(address newOwner) public virtual onlyOwner {... */\n    tag_33:\n        /* \"@openzeppelin/contracts/access/Ownable.sol\":1531:1544  _checkOwner() */\n      tag_53\n        /* \"@openzeppelin/contracts/access/Ownable.sol\":1531:1542  _checkOwner */\n      tag_42\n        /* \"@openzeppelin/contracts/access/Ownable.sol\":1531:1544  _checkOwner() */\n      jump\t// in\n    tag_53:\n        /* \"@openzeppelin/contracts/access/Ownable.sol\":2627:2649  newOwner == address(0) */\n      0xffffffffffffffffffffffffffffffffffffffff\n      dup2\n      and\n        /* \"@openzeppelin/contracts/access/Ownable.sol\":2623:2714  if (newOwner == address(0)) {... */\n      tag_55\n      jumpi\n        /* \"@openzeppelin/contracts/access/Ownable.sol\":2672:2703  OwnableInvalidOwner(address(0)) */\n      mload(0x40)\n      0x1e4fbdf700000000000000000000000000000000000000000000000000000000\n      dup2\n      mstore\n        /* \"@openzeppelin/contracts/access/Ownable.sol\":2700:2701  0 */\n      0x00\n        /* \"@openzeppelin/contracts/access/Ownable.sol\":2672:2703  OwnableInvalidOwner(address(0)) */\n      0x04\n      dup3\n      add\n        /* \"#utility.yul\":1164:1238   */\n      mstore\n        /* \"#utility.yul\":1137:1155   */\n      0x24\n      add\n        /* \"@openzeppelin/contracts/access/Ownable.sol\":2672:2703  OwnableInvalidOwner(address(0)) */\n    tag_56:\n      mload(0x40)\n      dup1\n      swap2\n      sub\n      swap1\n      revert\n        /* \"@openzeppelin/contracts/access/Ownable.sol\":2623:2714  if (newOwner == address(0)) {... */\n    tag_55:\n        /* \"@openzeppelin/contracts/access/Ownable.sol\":2723:2751  _transferOwnership(newOwner) */\n      tag_57\n        /* \"@openzeppelin/contracts/access/Ownable.sol\":2742:2750  newOwner */\n      dup2\n        /* \"@openzeppelin/contracts/access/Ownable.sol\":2723:2741  _transferOwnership */\n      tag_45\n        /* \"@openzeppelin/contracts/access/Ownable.sol\":2723:2751  _transferOwnership(newOwner) */\n      jump\t// in\n    tag_57:\n        /* \"@openzeppelin/contracts/access/Ownable.sol\":2543:2758  function transferOwnership(address newOwner) public virtual onlyOwner {... */\n      pop\n      jump\t// out\n        /* \"@openzeppelin/contracts/access/Ownable.sol\":1796:1958  function _checkOwner() internal view virtual {... */\n    tag_42:\n        /* \"@openzeppelin/contracts/access/Ownable.sol\":1684:1691  address */\n      0x00\n        /* \"@openzeppelin/contracts/access/Ownable.sol\":1710:1716  _owner */\n      sload\n        /* \"@openzeppelin/contracts/access/Ownable.sol\":1855:1878  owner() != _msgSender() */\n      0xffffffffffffffffffffffffffffffffffffffff\n        /* \"@openzeppelin/contracts/access/Ownable.sol\":1710:1716  _owner */\n      and\n        /* \"@openzeppelin/contracts/utils/Context.sol\":735:745  msg.sender */\n      caller\n        /* \"@openzeppelin/contracts/access/Ownable.sol\":1855:1878  owner() != _msgSender() */\n      eq\n        /* \"@openzeppelin/contracts/access/Ownable.sol\":1851:1952  if (owner() != _msgSender()) {... */\n      tag_44\n      jumpi\n        /* \"@openzeppelin/contracts/access/Ownable.sol\":1901:1941  OwnableUnauthorizedAccount(_msgSender()) */\n      mload(0x40)\n      0x118cdaa700000000000000000000000000000000000000000000000000000000\n      dup2\n      mstore\n        /* \"@openzeppelin/contracts/utils/Context.sol\":735:745  msg.sender */\n      caller\n        /* \"@openzeppelin/contracts/access/Ownable.sol\":1901:1941  OwnableUnauthorizedAccount(_msgSender()) */\n      0x04\n      dup3\n      add\n        /* \"#utility.yul\":1164:1238   */\n      mstore\n        /* \"#utility.yul\":1137:1155   */\n      0x24\n      add\n        /* \"@openzeppelin/contracts/access/Ownable.sol\":1901:1941  OwnableUnauthorizedAccount(_msgSender()) */\n      tag_56\n        /* \"#utility.yul\":1018:1244   */\n      jump\n        /* \"@openzeppelin/contracts/access/Ownable.sol\":2912:3099  function _transferOwnership(address newOwner) internal virtual {... */\n    tag_45:\n        /* \"@openzeppelin/contracts/access/Ownable.sol\":2985:3001  address oldOwner */\n      0x00\n        /* \"@openzeppelin/contracts/access/Ownable.sol\":3004:3010  _owner */\n      dup1\n      sload\n      0xffffffffffffffffffffffffffffffffffffffff\n        /* \"@openzeppelin/contracts/access/Ownable.sol\":3020:3037  _owner = newOwner */\n      dup4\n      dup2\n      and\n      0xffffffffffffffffffffffff0000000000000000000000000000000000000000\n      dup4\n      and\n      dup2\n      or\n      dup5\n      sstore\n        /* \"@openzeppelin/contracts/access/Ownable.sol\":3052:3092  OwnershipTransferred(oldOwner, newOwner) */\n      mload(0x40)\n        /* \"@openzeppelin/contracts/access/Ownable.sol\":3004:3010  _owner */\n      swap2\n      swap1\n      swap3\n      and\n      swap3\n      dup4\n      swap2\n        /* \"@openzeppelin/contracts/access/Ownable.sol\":3052:3092  OwnershipTransferred(oldOwner, newOwner) */\n      0x8be0079c531659141344cd1fd0a4f28419497f9722a3daafe3b4186f6b6457e0\n      swap2\n        /* \"@openzeppelin/contracts/access/Ownable.sol\":2985:3001  address oldOwner */\n      swap1\n        /* \"@openzeppelin/contracts/access/Ownable.sol\":3052:3092  OwnershipTransferred(oldOwner, newOwner) */\n      log3\n        /* \"@openzeppelin/contracts/access/Ownable.sol\":2975:3099  {... */\n      pop\n        /* \"@openzeppelin/contracts/access/Ownable.sol\":2912:3099  function _transferOwnership(address newOwner) internal virtual {... */\n      pop\n      jump\t// out\n        /* \"#utility.yul\":14:210   */\n    tag_67:\n        /* \"#utility.yul\":82:102   */\n      dup1\n      calldataload\n        /* \"#utility.yul\":142:184   */\n      0xffffffffffffffffffffffffffffffffffffffff\n        /* \"#utility.yul\":131:185   */\n      dup2\n      and\n        /* \"#utility.yul\":121:186   */\n      dup2\n      eq\n        /* \"#utility.yul\":111:204   */\n      tag_74\n      jumpi\n        /* \"#utility.yul\":200:201   */\n      0x00\n        /* \"#utility.yul\":197:198   */\n      dup1\n        /* \"#utility.yul\":190:202   */\n      revert\n        /* \"#utility.yul\":111:204   */\n    tag_74:\n        /* \"#utility.yul\":14:210   */\n      swap2\n      swap1\n      pop\n      jump\t// out\n        /* \"#utility.yul\":215:401   */\n    tag_12:\n        /* \"#utility.yul\":274:280   */\n      0x00\n        /* \"#utility.yul\":327:329   */\n      0x20\n        /* \"#utility.yul\":315:324   */\n      dup3\n        /* \"#utility.yul\":306:313   */\n      dup5\n        /* \"#utility.yul\":302:325   */\n      sub\n        /* \"#utility.yul\":298:330   */\n      slt\n        /* \"#utility.yul\":295:347   */\n      iszero\n      tag_76\n      jumpi\n        /* \"#utility.yul\":343:344   */\n      0x00\n        /* \"#utility.yul\":340:341   */\n      dup1\n        /* \"#utility.yul\":333:345   */\n      revert\n        /* \"#utility.yul\":295:347   */\n    tag_76:\n        /* \"#utility.yul\":366:395   */\n      tag_77\n        /* \"#utility.yul\":385:394   */\n      dup3\n        /* \"#utility.yul\":366:395   */\n      tag_67\n      jump\t// in\n    tag_77:\n        /* \"#utility.yul\":356:395   */\n      swap4\n        /* \"#utility.yul\":215:401   */\n      swap3\n      pop\n      pop\n      pop\n      jump\t// out\n        /* \"#utility.yul\":406:1013   */\n    tag_15:\n        /* \"#utility.yul\":518:522   */\n      0x00\n        /* \"#utility.yul\":547:549   */\n      0x20\n        /* \"#utility.yul\":576:578   */\n      dup1\n        /* \"#utility.yul\":565:574   */\n      dup4\n        /* \"#utility.yul\":558:579   */\n      mstore\n        /* \"#utility.yul\":608:614   */\n      dup4\n        /* \"#utility.yul\":602:615   */\n      mload\n        /* \"#utility.yul\":651:657   */\n      dup1\n        /* \"#utility.yul\":646:648   */\n      0x20\n        /* \"#utility.yul\":635:644   */\n      dup6\n        /* \"#utility.yul\":631:649   */\n      add\n        /* \"#utility.yul\":624:658   */\n      mstore\n        /* \"#utility.yul\":676:677   */\n      0x00\n        /* \"#utility.yul\":686:826   */\n    tag_79:\n        /* \"#utility.yul\":700:706   */\n      dup2\n        /* \"#utility.yul\":697:698   */\n      dup2\n        /* \"#utility.yul\":694:707   */\n      lt\n        /* \"#utility.yul\":686:826   */\n      iszero\n      tag_81\n      jumpi\n        /* \"#utility.yul\":795:809   */\n      dup6\n      dup2\n      add\n        /* \"#utility.yul\":791:814   */\n      dup4\n      add\n        /* \"#utility.yul\":785:815   */\n      mload\n        /* \"#utility.yul\":761:778   */\n      dup6\n      dup3\n      add\n        /* \"#utility.yul\":780:782   */\n      0x40\n        /* \"#utility.yul\":757:783   */\n      add\n        /* \"#utility.yul\":750:816   */\n      mstore\n        /* \"#utility.yul\":715:725   */\n      dup3\n      add\n        /* \"#utility.yul\":686:826   */\n      jump(tag_79)\n    tag_81:\n        /* \"#utility.yul\":690:693   */\n      pop\n        /* \"#utility.yul\":875:876   */\n      0x00\n        /* \"#utility.yul\":870:872   */\n      0x40\n        /* \"#utility.yul\":861:867   */\n      dup3\n        /* \"#utility.yul\":850:859   */\n      dup7\n        /* \"#utility.yul\":846:868   */\n      add\n        /* \"#utility.yul\":842:873   */\n      add\n        /* \"#utility.yul\":835:877   */\n      mstore\n        /* \"#utility.yul\":1004:1006   */\n      0x40\n        /* \"#utility.yul\":934:1000   */\n      0xffffffffffffffffffffffffffffffffffffffffffffffffffffffffffffffe0\n        /* \"#utility.yul\":929:931   */\n      0x1f\n        /* \"#utility.yul\":921:927   */\n      dup4\n        /* \"#utility.yul\":917:932   */\n      add\n        /* \"#utility.yul\":913:1001   */\n      and\n        /* \"#utility.yul\":902:911   */\n      dup6\n        /* \"#utility.yul\":898:1002   */\n      add\n        /* \"#utility.yul\":894:1007   */\n      add\n        /* \"#utility.yul\":886:1007   */\n      swap3\n      pop\n      pop\n      pop\n        /* \"#utility.yul\":406:1013   */\n      swap3\n      swap2\n      pop\n      pop\n      jump\t// out\n        /* \"#utility.yul\":1441:1625   */\n    tag_68:\n        /* \"#utility.yul\":1493:1570   */\n      0x4e487b7100000000000000000000000000000000000000000000000000000000\n        /* \"#utility.yul\":1490:1491   */\n      0x00\n        /* \"#utility.yul\":1483:1571   */\n      mstore\n        /* \"#utility.yul\":1590:1594   */\n      0x41\n        /* \"#utility.yul\":1587:1588   */\n      0x04\n        /* \"#utility.yul\":1580:1595   */\n      mstore\n        /* \"#utility.yul\":1614:1618   */\n      0x24\n        /* \"#utility.yul\":1611:1612   */\n      0x00\n        /* \"#utility.yul\":1604:1619   */\n      revert\n        /* \"#utility.yul\":1630:2685   */\n    tag_29:\n        /* \"#utility.yul\":1708:1714   */\n      0x00\n        /* \"#utility.yul\":1716:1722   */\n      dup1\n        /* \"#utility.yul\":1769:1771   */\n      0x40\n        /* \"#utility.yul\":1757:1766   */\n      dup4\n        /* \"#utility.yul\":1748:1755   */\n      dup6\n        /* \"#utility.yul\":1744:1767   */\n      sub\n        /* \"#utility.yul\":1740:1772   */\n      slt\n        /* \"#utility.yul\":1737:1789   */\n      iszero\n      tag_86\n      jumpi\n        /* \"#utility.yul\":1785:1786   */\n      0x00\n        /* \"#utility.yul\":1782:1783   */\n      dup1\n        /* \"#utility.yul\":1775:1787   */\n      revert\n        /* \"#utility.yul\":1737:1789   */\n    tag_86:\n        /* \"#utility.yul\":1808:1837   */\n      tag_87\n        /* \"#utility.yul\":1827:1836   */\n      dup4\n        /* \"#utility.yul\":1808:1837   */\n      tag_67\n      jump\t// in\n    tag_87:\n        /* \"#utility.yul\":1798:1837   */\n      swap2\n      pop\n        /* \"#utility.yul\":1888:1890   */\n      0x20\n        /* \"#utility.yul\":1877:1886   */\n      dup4\n        /* \"#utility.yul\":1873:1891   */\n      add\n        /* \"#utility.yul\":1860:1892   */\n      calldataload\n        /* \"#utility.yul\":1911:1929   */\n      0xffffffffffffffff\n        /* \"#utility.yul\":1952:1954   */\n      dup1\n        /* \"#utility.yul\":1944:1950   */\n      dup3\n        /* \"#utility.yul\":1941:1955   */\n      gt\n        /* \"#utility.yul\":1938:1972   */\n      iszero\n      tag_88\n      jumpi\n        /* \"#utility.yul\":1968:1969   */\n      0x00\n        /* \"#utility.yul\":1965:1966   */\n      dup1\n        /* \"#utility.yul\":1958:1970   */\n      revert\n        /* \"#utility.yul\":1938:1972   */\n    tag_88:\n        /* \"#utility.yul\":2006:2012   */\n      dup2\n        /* \"#utility.yul\":1995:2004   */\n      dup6\n        /* \"#utility.yul\":1991:2013   */\n      add\n        /* \"#utility.yul\":1981:2013   */\n      swap2\n      pop\n        /* \"#utility.yul\":2051:2058   */\n      dup6\n        /* \"#utility.yul\":2044:2048   */\n      0x1f\n        /* \"#utility.yul\":2040:2042   */\n      dup4\n        /* \"#utility.yul\":2036:2049   */\n      add\n        /* \"#utility.yul\":2032:2059   */\n      slt\n        /* \"#utility.yul\":2022:2077   */\n      tag_89\n      jumpi\n        /* \"#utility.yul\":2073:2074   */\n      0x00\n        /* \"#utility.yul\":2070:2071   */\n      dup1\n        /* \"#utility.yul\":2063:2075   */\n      revert\n        /* \"#utility.yul\":2022:2077   */\n    tag_89:\n        /* \"#utility.yul\":2109:2111   */\n      dup2\n        /* \"#utility.yul\":2096:2112   */\n      calldataload\n        /* \"#utility.yul\":2131:2133   */\n      dup2\n        /* \"#utility.yul\":2127:2129   */\n      dup2\n        /* \"#utility.yul\":2124:2134   */\n      gt\n        /* \"#utility.yul\":2121:2157   */\n      iszero\n      tag_91\n      jumpi\n        /* \"#utility.yul\":2137:2155   */\n      tag_91\n      tag_68\n      jump\t// in\n    tag_91:\n        /* \"#utility.yul\":2271:2273   */\n      0x40\n        /* \"#utility.yul\":2265:2274   */\n      mload\n        /* \"#utility.yul\":2333:2337   */\n      0x1f\n        /* \"#utility.yul\":2325:2338   */\n      dup3\n      add\n        /* \"#utility.yul\":2176:2242   */\n      0xffffffffffffffffffffffffffffffffffffffffffffffffffffffffffffffe0\n        /* \"#utility.yul\":2321:2343   */\n      swap1\n      dup2\n      and\n        /* \"#utility.yul\":2345:2347   */\n      0x3f\n        /* \"#utility.yul\":2317:2348   */\n      add\n        /* \"#utility.yul\":2313:2353   */\n      and\n        /* \"#utility.yul\":2301:2354   */\n      dup2\n      add\n      swap1\n        /* \"#utility.yul\":2369:2387   */\n      dup4\n      dup3\n      gt\n        /* \"#utility.yul\":2389:2411   */\n      dup2\n      dup4\n      lt\n        /* \"#utility.yul\":2366:2412   */\n      or\n        /* \"#utility.yul\":2363:2435   */\n      iszero\n      tag_93\n      jumpi\n        /* \"#utility.yul\":2415:2433   */\n      tag_93\n      tag_68\n      jump\t// in\n    tag_93:\n        /* \"#utility.yul\":2455:2465   */\n      dup2\n        /* \"#utility.yul\":2451:2453   */\n      0x40\n        /* \"#utility.yul\":2444:2466   */\n      mstore\n        /* \"#utility.yul\":2490:2492   */\n      dup3\n        /* \"#utility.yul\":2482:2488   */\n      dup2\n        /* \"#utility.yul\":2475:2493   */\n      mstore\n        /* \"#utility.yul\":2530:2537   */\n      dup9\n        /* \"#utility.yul\":2525:2527   */\n      0x20\n        /* \"#utility.yul\":2520:2522   */\n      dup5\n        /* \"#utility.yul\":2516:2518   */\n      dup8\n        /* \"#utility.yul\":2512:2523   */\n      add\n        /* \"#utility.yul\":2508:2528   */\n      add\n        /* \"#utility.yul\":2505:2538   */\n      gt\n        /* \"#utility.yul\":2502:2555   */\n      iszero\n      tag_94\n      jumpi\n        /* \"#utility.yul\":2551:2552   */\n      0x00\n        /* \"#utility.yul\":2548:2549   */\n      dup1\n        /* \"#utility.yul\":2541:2553   */\n      revert\n        /* \"#utility.yul\":2502:2555   */\n    tag_94:\n        /* \"#utility.yul\":2607:2609   */\n      dup3\n        /* \"#utility.yul\":2602:2604   */\n      0x20\n        /* \"#utility.yul\":2598:2600   */\n      dup7\n        /* \"#utility.yul\":2594:2605   */\n      add\n        /* \"#utility.yul\":2589:2591   */\n      0x20\n        /* \"#utility.yul\":2581:2587   */\n      dup4\n        /* \"#utility.yul\":2577:2592   */\n      add\n        /* \"#utility.yul\":2564:2610   */\n      calldatacopy\n        /* \"#utility.yul\":2652:2653   */\n      0x00\n        /* \"#utility.yul\":2647:2649   */\n      0x20\n        /* \"#utility.yul\":2642:2644   */\n      dup5\n        /* \"#utility.yul\":2634:2640   */\n      dup4\n        /* \"#utility.yul\":2630:2645   */\n      add\n        /* \"#utility.yul\":2626:2650   */\n      add\n        /* \"#utility.yul\":2619:2654   */\n      mstore\n        /* \"#utility.yul\":2673:2679   */\n      dup1\n        /* \"#utility.yul\":2663:2679   */\n      swap6\n      pop\n      pop\n      pop\n      pop\n      pop\n      pop\n        /* \"#utility.yul\":1630:2685   */\n      swap3\n      pop\n      swap3\n      swap1\n      pop\n      jump\t// out\n        /* \"#utility.yul\":2690:3127   */\n    tag_35:\n        /* \"#utility.yul\":2769:2770   */\n      0x01\n        /* \"#utility.yul\":2765:2777   */\n      dup2\n      dup2\n      shr\n      swap1\n        /* \"#utility.yul\":2812:2824   */\n      dup3\n      and\n      dup1\n        /* \"#utility.yul\":2833:2894   */\n      tag_96\n      jumpi\n        /* \"#utility.yul\":2887:2891   */\n      0x7f\n        /* \"#utility.yul\":2879:2885   */\n      dup3\n        /* \"#utility.yul\":2875:2892   */\n      and\n        /* \"#utility.yul\":2865:2892   */\n      swap2\n      pop\n        /* \"#utility.yul\":2833:2894   */\n    tag_96:\n        /* \"#utility.yul\":2940:2942   */\n      0x20\n        /* \"#utility.yul\":2932:2938   */\n      dup3\n        /* \"#utility.yul\":2929:2943   */\n      lt\n        /* \"#utility.yul\":2909:2927   */\n      dup2\n        /* \"#utility.yul\":2906:2944   */\n      sub\n        /* \"#utility.yul\":2903:3121   */\n      tag_97\n      jumpi\n        /* \"#utility.yul\":2977:3054   */\n      0x4e487b7100000000000000000000000000000000000000000000000000000000\n        /* \"#utility.yul\":2974:2975   */\n      0x00\n        /* \"#utility.yul\":2967:3055   */\n      mstore\n        /* \"#utility.yul\":3078:3082   */\n      0x22\n        /* \"#utility.yul\":3075:3076   */\n      0x04\n        /* \"#utility.yul\":3068:3083   */\n      mstore\n        /* \"#utility.yul\":3106:3110   */\n      0x24\n        /* \"#utility.yul\":3103:3104   */\n      0x00\n        /* \"#utility.yul\":3096:3111   */\n      revert\n        /* \"#utility.yul\":2903:3121   */\n    tag_97:\n      pop\n        /* \"#utility.yul\":2690:3127   */\n      swap2\n      swap1\n      pop\n      jump\t// out\n        /* \"#utility.yul\":3258:3776   */\n    tag_70:\n        /* \"#utility.yul\":3360:3362   */\n      0x1f\n        /* \"#utility.yul\":3355:3358   */\n      dup3\n        /* \"#utility.yul\":3352:3363   */\n      gt\n        /* \"#utility.yul\":3349:3770   */\n      iszero\n      tag_50\n      jumpi\n        /* \"#utility.yul\":3396:3401   */\n      dup1\n        /* \"#utility.yul\":3393:3394   */\n      0x00\n        /* \"#utility.yul\":3386:3402   */\n      mstore\n        /* \"#utility.yul\":3440:3444   */\n      0x20\n        /* \"#utility.yul\":3437:3438   */\n      0x00\n        /* \"#utility.yul\":3427:3445   */\n      keccak256\n        /* \"#utility.yul\":3510:3512   */\n      0x1f\n        /* \"#utility.yul\":3498:3508   */\n      dup5\n        /* \"#utility.yul\":3494:3513   */\n      add\n        /* \"#utility.yul\":3491:3492   */\n      0x05\n        /* \"#utility.yul\":3487:3514   */\n      shr\n        /* \"#utility.yul\":3481:3485   */\n      dup2\n        /* \"#utility.yul\":3477:3515   */\n      add\n        /* \"#utility.yul\":3546:3550   */\n      0x20\n        /* \"#utility.yul\":3534:3544   */\n      dup6\n        /* \"#utility.yul\":3531:3551   */\n      lt\n        /* \"#utility.yul\":3528:3575   */\n      iszero\n      tag_101\n      jumpi\n      pop\n        /* \"#utility.yul\":3569:3573   */\n      dup1\n        /* \"#utility.yul\":3528:3575   */\n    tag_101:\n        /* \"#utility.yul\":3624:3626   */\n      0x1f\n        /* \"#utility.yul\":3619:3622   */\n      dup5\n        /* \"#utility.yul\":3615:3627   */\n      add\n        /* \"#utility.yul\":3612:3613   */\n      0x05\n        /* \"#utility.yul\":3608:3628   */\n      shr\n        /* \"#utility.yul\":3602:3606   */\n      dup3\n        /* \"#utility.yul\":3598:3629   */\n      add\n        /* \"#utility.yul\":3588:3629   */\n      swap2\n      pop\n        /* \"#utility.yul\":3679:3760   */\n    tag_102:\n        /* \"#utility.yul\":3697:3699   */\n      dup2\n        /* \"#utility.yul\":3690:3695   */\n      dup2\n        /* \"#utility.yul\":3687:3700   */\n      lt\n        /* \"#utility.yul\":3679:3760   */\n      iszero\n      tag_104\n      jumpi\n        /* \"#utility.yul\":3756:3757   */\n      0x00\n        /* \"#utility.yul\":3742:3758   */\n      dup2\n      sstore\n        /* \"#utility.yul\":3723:3724   */\n      0x01\n        /* \"#utility.yul\":3712:3725   */\n      add\n        /* \"#utility.yul\":3679:3760   */\n      jump(tag_102)\n    tag_104:\n        /* \"#utility.yul\":3683:3686   */\n      pop\n      pop\n        /* \"#utility.yul\":3258:3776   */\n      pop\n      pop\n      pop\n      jump\t// out\n        /* \"#utility.yul\":4012:5476   */\n    tag_51:\n        /* \"#utility.yul\":4138:4141   */\n      dup2\n        /* \"#utility.yul\":4132:4142   */\n      mload\n        /* \"#utility.yul\":4165:4183   */\n      0xffffffffffffffff\n        /* \"#utility.yul\":4157:4163   */\n      dup2\n        /* \"#utility.yul\":4154:4184   */\n      gt\n        /* \"#utility.yul\":4151:4207   */\n      iszero\n      tag_108\n      jumpi\n        /* \"#utility.yul\":4187:4205   */\n      tag_108\n      tag_68\n      jump\t// in\n    tag_108:\n        /* \"#utility.yul\":4216:4313   */\n      tag_109\n        /* \"#utility.yul\":4306:4312   */\n      dup2\n        /* \"#utility.yul\":4266:4304   */\n      tag_110\n        /* \"#utility.yul\":4298:4302   */\n      dup5\n        /* \"#utility.yul\":4292:4303   */\n      sload\n        /* \"#utility.yul\":4266:4304   */\n      tag_35\n      jump\t// in\n    tag_110:\n        /* \"#utility.yul\":4260:4264   */\n      dup5\n        /* \"#utility.yul\":4216:4313   */\n      tag_70\n      jump\t// in\n    tag_109:\n        /* \"#utility.yul\":4368:4372   */\n      0x20\n      dup1\n        /* \"#utility.yul\":4425:4427   */\n      0x1f\n        /* \"#utility.yul\":4414:4428   */\n      dup4\n      gt\n        /* \"#utility.yul\":4442:4443   */\n      0x01\n        /* \"#utility.yul\":4437:5219   */\n      dup2\n      eq\n      tag_112\n      jumpi\n        /* \"#utility.yul\":5263:5264   */\n      0x00\n        /* \"#utility.yul\":5280:5286   */\n      dup5\n        /* \"#utility.yul\":5277:5366   */\n      iszero\n      tag_113\n      jumpi\n      pop\n        /* \"#utility.yul\":5332:5351   */\n      dup6\n      dup4\n      add\n        /* \"#utility.yul\":5326:5352   */\n      mload\n        /* \"#utility.yul\":5277:5366   */\n    tag_113:\n        /* \"#utility.yul\":3918:3984   */\n      0xffffffffffffffffffffffffffffffffffffffffffffffffffffffffffffffff\n        /* \"#utility.yul\":3909:3910   */\n      0x03\n        /* \"#utility.yul\":3905:3916   */\n      dup7\n      swap1\n      shl\n        /* \"#utility.yul\":3901:3985   */\n      shr\n        /* \"#utility.yul\":3897:3986   */\n      not\n        /* \"#utility.yul\":3887:3987   */\n      and\n        /* \"#utility.yul\":3993:3994   */\n      0x01\n        /* \"#utility.yul\":3989:4000   */\n      dup6\n      swap1\n      shl\n        /* \"#utility.yul\":3884:4001   */\n      or\n        /* \"#utility.yul\":5379:5460   */\n      dup6\n      sstore\n        /* \"#utility.yul\":4407:5470   */\n      jump(tag_111)\n        /* \"#utility.yul\":4437:5219   */\n    tag_112:\n        /* \"#utility.yul\":3205:3206   */\n      0x00\n        /* \"#utility.yul\":3198:3212   */\n      dup6\n      dup2\n      mstore\n        /* \"#utility.yul\":3242:3246   */\n      0x20\n        /* \"#utility.yul\":3229:3247   */\n      dup2\n      keccak256\n        /* \"#utility.yul\":4485:4551   */\n      0xffffffffffffffffffffffffffffffffffffffffffffffffffffffffffffffe0\n        /* \"#utility.yul\":4473:4552   */\n      dup7\n      and\n      swap2\n        /* \"#utility.yul\":4650:4886   */\n    tag_116:\n        /* \"#utility.yul\":4664:4671   */\n      dup3\n        /* \"#utility.yul\":4661:4662   */\n      dup2\n        /* \"#utility.yul\":4658:4672   */\n      lt\n        /* \"#utility.yul\":4650:4886   */\n      iszero\n      tag_118\n      jumpi\n        /* \"#utility.yul\":4753:4772   */\n      dup9\n      dup7\n      add\n        /* \"#utility.yul\":4747:4773   */\n      mload\n        /* \"#utility.yul\":4732:4774   */\n      dup3\n      sstore\n        /* \"#utility.yul\":4845:4872   */\n      swap5\n      dup5\n      add\n      swap5\n        /* \"#utility.yul\":4813:4814   */\n      0x01\n        /* \"#utility.yul\":4801:4815   */\n      swap1\n      swap2\n      add\n      swap1\n        /* \"#utility.yul\":4680:4699   */\n      dup5\n      add\n        /* \"#utility.yul\":4650:4886   */\n      jump(tag_116)\n    tag_118:\n        /* \"#utility.yul\":4654:4657   */\n      pop\n        /* \"#utility.yul\":4914:4920   */\n      dup6\n        /* \"#utility.yul\":4905:4912   */\n      dup3\n        /* \"#utility.yul\":4902:4921   */\n      lt\n        /* \"#utility.yul\":4899:5160   */\n      iszero\n      tag_119\n      jumpi\n        /* \"#utility.yul\":4975:4994   */\n      dup8\n      dup6\n      add\n        /* \"#utility.yul\":4969:4995   */\n      mload\n        /* \"#utility.yul\":5076:5142   */\n      0xffffffffffffffffffffffffffffffffffffffffffffffffffffffffffffffff\n        /* \"#utility.yul\":5058:5059   */\n      0x03\n        /* \"#utility.yul\":5054:5068   */\n      dup9\n      swap1\n      shl\n        /* \"#utility.yul\":5070:5073   */\n      0xf8\n        /* \"#utility.yul\":5050:5074   */\n      and\n        /* \"#utility.yul\":5046:5143   */\n      shr\n        /* \"#utility.yul\":5042:5144   */\n      not\n        /* \"#utility.yul\":5027:5145   */\n      and\n        /* \"#utility.yul\":5012:5146   */\n      dup2\n      sstore\n        /* \"#utility.yul\":4899:5160   */\n    tag_119:\n      pop\n      pop\n        /* \"#utility.yul\":5206:5207   */\n      0x01\n        /* \"#utility.yul\":5197:5203   */\n      dup5\n        /* \"#utility.yul\":5194:5195   */\n      0x01\n        /* \"#utility.yul\":5190:5204   */\n      shl\n        /* \"#utility.yul\":5186:5208   */\n      add\n        /* \"#utility.yul\":5180:5184   */\n      dup6\n        /* \"#utility.yul\":5173:5209   */\n      sstore\n        /* \"#utility.yul\":4407:5470   */\n    tag_111:\n      pop\n      pop\n      pop\n      pop\n        /* \"#utility.yul\":4012:5476   */\n      pop\n      pop\n      jump\t// out\n\n    auxdata: 0xa264697066735822122092c0eceb49aab9c6b8865c8ca8d20c2592de94e479caf29f97ed0e3d427de09764736f6c63430008160033\n}\n",
				"bytecode": {
					"linkReferences": {},
					"object": "608060405234801561000f575f80fd5b5060405161080738038061080783398101604081905261002e916100bb565b806001600160a01b03811661005c57604051631e4fbdf760e01b81525f600482015260240160405180910390fd5b6100658161006c565b50506100e8565b5f80546001600160a01b038381166001600160a01b0319831681178455604051919092169283917f8be0079c531659141344cd1fd0a4f28419497f9722a3daafe3b4186f6b6457e09190a35050565b5f602082840312156100cb575f80fd5b81516001600160a01b03811681146100e1575f80fd5b9392505050565b610712806100f55f395ff3fe608060405234801561000f575f80fd5b506004361061006f575f3560e01c8063c3c5a5471161004d578063c3c5a547146100cd578063ebbb4f84146100ff578063f2fde38b14610112575f80fd5b80632146671f14610073578063715018a61461009c5780638da5cb5b146100a6575b5f80fd5b610086610081366004610393565b610125565b60405161009391906103b3565b60405180910390f35b6100a46101bc565b005b5f5460405173ffffffffffffffffffffffffffffffffffffffff9091168152602001610093565b6100ef6100db366004610393565b60016020525f908152604090205460ff1681565b6040519015158152602001610093565b6100a461010d36600461044a565b6101cf565b6100a4610120366004610393565b61023d565b60026020525f90815260409020805461013d90610524565b80601f016020809104026020016040519081016040528092919081815260200182805461016990610524565b80156101b45780601f1061018b576101008083540402835291602001916101b4565b820191905f5260205f20905b81548152906001019060200180831161019757829003601f168201915b505050505081565b6101c46102a5565b6101cd5f6102f7565b565b6101d76102a5565b73ffffffffffffffffffffffffffffffffffffffff82165f90815260016020818152604080842080547fffffffffffffffffffffffffffffffffffffffffffffffffffffffffffffff001690931790925560029052902061023882826105c0565b505050565b6102456102a5565b73ffffffffffffffffffffffffffffffffffffffff8116610299576040517f1e4fbdf70000000000000000000000000000000000000000000000000000000081525f60048201526024015b60405180910390fd5b6102a2816102f7565b50565b5f5473ffffffffffffffffffffffffffffffffffffffff1633146101cd576040517f118cdaa7000000000000000000000000000000000000000000000000000000008152336004820152602401610290565b5f805473ffffffffffffffffffffffffffffffffffffffff8381167fffffffffffffffffffffffff0000000000000000000000000000000000000000831681178455604051919092169283917f8be0079c531659141344cd1fd0a4f28419497f9722a3daafe3b4186f6b6457e09190a35050565b803573ffffffffffffffffffffffffffffffffffffffff8116811461038e575f80fd5b919050565b5f602082840312156103a3575f80fd5b6103ac8261036b565b9392505050565b5f602080835283518060208501525f5b818110156103df578581018301518582016040015282016103c3565b505f6040828601015260407fffffffffffffffffffffffffffffffffffffffffffffffffffffffffffffffe0601f8301168501019250505092915050565b7f4e487b71000000000000000000000000000000000000000000000000000000005f52604160045260245ffd5b5f806040838503121561045b575f80fd5b6104648361036b565b9150602083013567ffffffffffffffff80821115610480575f80fd5b818501915085601f830112610493575f80fd5b8135818111156104a5576104a561041d565b604051601f82017fffffffffffffffffffffffffffffffffffffffffffffffffffffffffffffffe0908116603f011681019083821181831017156104eb576104eb61041d565b81604052828152886020848701011115610503575f80fd5b826020860160208301375f6020848301015280955050505050509250929050565b600181811c9082168061053857607f821691505b60208210810361056f577f4e487b71000000000000000000000000000000000000000000000000000000005f52602260045260245ffd5b50919050565b601f82111561023857805f5260205f20601f840160051c8101602085101561059a5750805b601f840160051c820191505b818110156105b9575f81556001016105a6565b5050505050565b815167ffffffffffffffff8111156105da576105da61041d565b6105ee816105e88454610524565b84610575565b602080601f831160018114610640575f841561060a5750858301515b7fffffffffffffffffffffffffffffffffffffffffffffffffffffffffffffffff600386901b1c1916600185901b1785556106d4565b5f858152602081207fffffffffffffffffffffffffffffffffffffffffffffffffffffffffffffffe08616915b8281101561068c5788860151825594840194600190910190840161066d565b50858210156106c857878501517fffffffffffffffffffffffffffffffffffffffffffffffffffffffffffffffff600388901b60f8161c191681555b505060018460011b0185555b50505050505056fea264697066735822122092c0eceb49aab9c6b8865c8ca8d20c2592de94e479caf29f97ed0e3d427de09764736f6c63430008160033",
					"opcodes": "PUSH1 0x80 PUSH1 0x40 MSTORE CALLVALUE DUP1 ISZERO PUSH2 0xF JUMPI PUSH0 DUP1 REVERT JUMPDEST POP PUSH1 0x40 MLOAD PUSH2 0x807 CODESIZE SUB DUP1 PUSH2 0x807 DUP4 CODECOPY DUP2 ADD PUSH1 0x40 DUP2 SWAP1 MSTORE PUSH2 0x2E SWAP2 PUSH2 0xBB JUMP JUMPDEST DUP1 PUSH1 0x1 PUSH1 0x1 PUSH1 0xA0 SHL SUB DUP2 AND PUSH2 0x5C JUMPI PUSH1 0x40 MLOAD PUSH4 0x1E4FBDF7 PUSH1 0xE0 SHL DUP2 MSTORE PUSH0 PUSH1 0x4 DUP3 ADD MSTORE PUSH1 0x24 ADD PUSH1 0x40 MLOAD DUP1 SWAP2 SUB SWAP1 REVERT JUMPDEST PUSH2 0x65 DUP2 PUSH2 0x6C JUMP JUMPDEST POP POP PUSH2 0xE8 JUMP JUMPDEST PUSH0 DUP1 SLOAD PUSH1 0x1 PUSH1 0x1 PUSH1 0xA0 SHL SUB DUP4 DUP2 AND PUSH1 0x1 PUSH1 0x1 PUSH1 0xA0 SHL SUB NOT DUP4 AND DUP2 OR DUP5 SSTORE PUSH1 0x40 MLOAD SWAP2 SWAP1 SWAP3 AND SWAP3 DUP4 SWAP2 PUSH32 0x8BE0079C531659141344CD1FD0A4F28419497F9722A3DAAFE3B4186F6B6457E0 SWAP2 SWAP1 LOG3 POP POP JUMP JUMPDEST PUSH0 PUSH1 0x20 DUP3 DUP5 SUB SLT ISZERO PUSH2 0xCB JUMPI PUSH0 DUP1 REVERT JUMPDEST DUP2 MLOAD PUSH1 0x1 PUSH1 0x1 PUSH1 0xA0 SHL SUB DUP2 AND DUP2 EQ PUSH2 0xE1 JUMPI PUSH0 DUP1 REVERT JUMPDEST SWAP4 SWAP3 POP POP POP JUMP JUMPDEST PUSH2 0x712 DUP1 PUSH2 0xF5 PUSH0 CODECOPY PUSH0 RETURN INVALID PUSH1 0x80 PUSH1 0x40 MSTORE CALLVALUE DUP1 ISZERO PUSH2 0xF JUMPI PUSH0 DUP1 REVERT JUMPDEST POP PUSH1 0x4 CALLDATASIZE LT PUSH2 0x6F JUMPI PUSH0 CALLDATALOAD PUSH1 0xE0 SHR DUP1 PUSH4 0xC3C5A547 GT PUSH2 0x4D JUMPI DUP1 PUSH4 0xC3C5A547 EQ PUSH2 0xCD JUMPI DUP1 PUSH4 0xEBBB4F84 EQ PUSH2 0xFF JUMPI DUP1 PUSH4 0xF2FDE38B EQ PUSH2 0x112 JUMPI PUSH0 DUP1 REVERT JUMPDEST DUP1 PUSH4 0x2146671F EQ PUSH2 0x73 JUMPI DUP1 PUSH4 0x715018A6 EQ PUSH2 0x9C JUMPI DUP1 PUSH4 0x8DA5CB5B EQ PUSH2 0xA6 JUMPI JUMPDEST PUSH0 DUP1 REVERT JUMPDEST PUSH2 0x86 PUSH2 0x81 CALLDATASIZE PUSH1 0x4 PUSH2 0x393 JUMP JUMPDEST PUSH2 0x125 JUMP JUMPDEST PUSH1 0x40 MLOAD PUSH2 0x93 SWAP2 SWAP1 PUSH2 0x3B3 JUMP JUMPDEST PUSH1 0x40 MLOAD DUP1 SWAP2 SUB SWAP1 RETURN JUMPDEST PUSH2 0xA4 PUSH2 0x1BC JUMP JUMPDEST STOP JUMPDEST PUSH0 SLOAD PUSH1 0x40 MLOAD PUSH20 0xFFFFFFFFFFFFFFFFFFFFFFFFFFFFFFFFFFFFFFFF SWAP1 SWAP2 AND DUP2 MSTORE PUSH1 0x20 ADD PUSH2 0x93 JUMP JUMPDEST PUSH2 0xEF PUSH2 0xDB CALLDATASIZE PUSH1 0x4 PUSH2 0x393 JUMP JUMPDEST PUSH1 0x1 PUSH1 0x20 MSTORE PUSH0 SWAP1 DUP2 MSTORE PUSH1 0x40 SWAP1 KECCAK256 SLOAD PUSH1 0xFF AND DUP2 JUMP JUMPDEST PUSH1 0x40 MLOAD SWAP1 ISZERO ISZERO DUP2 MSTORE PUSH1 0x20 ADD PUSH2 0x93 JUMP JUMPDEST PUSH2 0xA4 PUSH2 0x10D CALLDATASIZE PUSH1 0x4 PUSH2 0x44A JUMP JUMPDEST PUSH2 0x1CF JUMP JUMPDEST PUSH2 0xA4 PUSH2 0x120 CALLDATASIZE PUSH1 0x4 PUSH2 0x393 JUMP JUMPDEST PUSH2 0x23D JUMP JUMPDEST PUSH1 0x2 PUSH1 0x20 MSTORE PUSH0 SWAP1 DUP2 MSTORE PUSH1 0x40 SWAP1 KECCAK256 DUP1 SLOAD PUSH2 0x13D SWAP1 PUSH2 0x524 JUMP JUMPDEST DUP1 PUSH1 0x1F ADD PUSH1 0x20 DUP1 SWAP2 DIV MUL PUSH1 0x20 ADD PUSH1 0x40 MLOAD SWAP1 DUP2 ADD PUSH1 0x40 MSTORE DUP1 SWAP3 SWAP2 SWAP1 DUP2 DUP2 MSTORE PUSH1 0x20 ADD DUP3 DUP1 SLOAD PUSH2 0x169 SWAP1 PUSH2 0x524 JUMP JUMPDEST DUP1 ISZERO PUSH2 0x1B4 JUMPI DUP1 PUSH1 0x1F LT PUSH2 0x18B JUMPI PUSH2 0x100 DUP1 DUP4 SLOAD DIV MUL DUP4 MSTORE SWAP2 PUSH1 0x20 ADD SWAP2 PUSH2 0x1B4 JUMP JUMPDEST DUP3 ADD SWAP2 SWAP1 PUSH0 MSTORE PUSH1 0x20 PUSH0 KECCAK256 SWAP1 JUMPDEST DUP2 SLOAD DUP2 MSTORE SWAP1 PUSH1 0x1 ADD SWAP1 PUSH1 0x20 ADD DUP1 DUP4 GT PUSH2 0x197 JUMPI DUP3 SWAP1 SUB PUSH1 0x1F AND DUP3 ADD SWAP2 JUMPDEST POP POP POP POP POP DUP2 JUMP JUMPDEST PUSH2 0x1C4 PUSH2 0x2A5 JUMP JUMPDEST PUSH2 0x1CD PUSH0 PUSH2 0x2F7 JUMP JUMPDEST JUMP JUMPDEST PUSH2 0x1D7 PUSH2 0x2A5 JUMP JUMPDEST PUSH20 0xFFFFFFFFFFFFFFFFFFFFFFFFFFFFFFFFFFFFFFFF DUP3 AND PUSH0 SWAP1 DUP2 MSTORE PUSH1 0x1 PUSH1 0x20 DUP2 DUP2 MSTORE PUSH1 0x40 DUP1 DUP5 KECCAK256 DUP1 SLOAD PUSH32 0xFFFFFFFFFFFFFFFFFFFFFFFFFFFFFFFFFFFFFFFFFFFFFFFFFFFFFFFFFFFFFF00 AND SWAP1 SWAP4 OR SWAP1 SWAP3 SSTORE PUSH1 0x2 SWAP1 MSTORE SWAP1 KECCAK256 PUSH2 0x238 DUP3 DUP3 PUSH2 0x5C0 JUMP JUMPDEST POP POP POP JUMP JUMPDEST PUSH2 0x245 PUSH2 0x2A5 JUMP JUMPDEST PUSH20 0xFFFFFFFFFFFFFFFFFFFFFFFFFFFFFFFFFFFFFFFF DUP2 AND PUSH2 0x299 JUMPI PUSH1 0x40 MLOAD PUSH32 0x1E4FBDF700000000000000000000000000000000000000000000000000000000 DUP2 MSTORE PUSH0 PUSH1 0x4 DUP3 ADD MSTORE PUSH1 0x24 ADD JUMPDEST PUSH1 0x40 MLOAD DUP1 SWAP2 SUB SWAP1 REVERT JUMPDEST PUSH2 0x2A2 DUP2 PUSH2 0x2F7 JUMP JUMPDEST POP JUMP JUMPDEST PUSH0 SLOAD PUSH20 0xFFFFFFFFFFFFFFFFFFFFFFFFFFFFFFFFFFFFFFFF AND CALLER EQ PUSH2 0x1CD JUMPI PUSH1 0x40 MLOAD PUSH32 0x118CDAA700000000000000000000000000000000000000000000000000000000 DUP2 MSTORE CALLER PUSH1 0x4 DUP3 ADD MSTORE PUSH1 0x24 ADD PUSH2 0x290 JUMP JUMPDEST PUSH0 DUP1 SLOAD PUSH20 0xFFFFFFFFFFFFFFFFFFFFFFFFFFFFFFFFFFFFFFFF DUP4 DUP2 AND PUSH32 0xFFFFFFFFFFFFFFFFFFFFFFFF0000000000000000000000000000000000000000 DUP4 AND DUP2 OR DUP5 SSTORE PUSH1 0x40 MLOAD SWAP2 SWAP1 SWAP3 AND SWAP3 DUP4 SWAP2 PUSH32 0x8BE0079C531659141344CD1FD0A4F28419497F9722A3DAAFE3B4186F6B6457E0 SWAP2 SWAP1 LOG3 POP POP JUMP JUMPDEST DUP1 CALLDATALOAD PUSH20 0xFFFFFFFFFFFFFFFFFFFFFFFFFFFFFFFFFFFFFFFF DUP2 AND DUP2 EQ PUSH2 0x38E JUMPI PUSH0 DUP1 REVERT JUMPDEST SWAP2 SWAP1 POP JUMP JUMPDEST PUSH0 PUSH1 0x20 DUP3 DUP5 SUB SLT ISZERO PUSH2 0x3A3 JUMPI PUSH0 DUP1 REVERT JUMPDEST PUSH2 0x3AC DUP3 PUSH2 0x36B JUMP JUMPDEST SWAP4 SWAP3 POP POP POP JUMP JUMPDEST PUSH0 PUSH1 0x20 DUP1 DUP4 MSTORE DUP4 MLOAD DUP1 PUSH1 0x20 DUP6 ADD MSTORE PUSH0 JUMPDEST DUP2 DUP2 LT ISZERO PUSH2 0x3DF JUMPI DUP6 DUP2 ADD DUP4 ADD MLOAD DUP6 DUP3 ADD PUSH1 0x40 ADD MSTORE DUP3 ADD PUSH2 0x3C3 JUMP JUMPDEST POP PUSH0 PUSH1 0x40 DUP3 DUP7 ADD ADD MSTORE PUSH1 0x40 PUSH32 0xFFFFFFFFFFFFFFFFFFFFFFFFFFFFFFFFFFFFFFFFFFFFFFFFFFFFFFFFFFFFFFE0 PUSH1 0x1F DUP4 ADD AND DUP6 ADD ADD SWAP3 POP POP POP SWAP3 SWAP2 POP POP JUMP JUMPDEST PUSH32 0x4E487B7100000000000000000000000000000000000000000000000000000000 PUSH0 MSTORE PUSH1 0x41 PUSH1 0x4 MSTORE PUSH1 0x24 PUSH0 REVERT JUMPDEST PUSH0 DUP1 PUSH1 0x40 DUP4 DUP6 SUB SLT ISZERO PUSH2 0x45B JUMPI PUSH0 DUP1 REVERT JUMPDEST PUSH2 0x464 DUP4 PUSH2 0x36B JUMP JUMPDEST SWAP2 POP PUSH1 0x20 DUP4 ADD CALLDATALOAD PUSH8 0xFFFFFFFFFFFFFFFF DUP1 DUP3 GT ISZERO PUSH2 0x480 JUMPI PUSH0 DUP1 REVERT JUMPDEST DUP2 DUP6 ADD SWAP2 POP DUP6 PUSH1 0x1F DUP4 ADD SLT PUSH2 0x493 JUMPI PUSH0 DUP1 REVERT JUMPDEST DUP2 CALLDATALOAD DUP2 DUP2 GT ISZERO PUSH2 0x4A5 JUMPI PUSH2 0x4A5 PUSH2 0x41D JUMP JUMPDEST PUSH1 0x40 MLOAD PUSH1 0x1F DUP3 ADD PUSH32 0xFFFFFFFFFFFFFFFFFFFFFFFFFFFFFFFFFFFFFFFFFFFFFFFFFFFFFFFFFFFFFFE0 SWAP1 DUP2 AND PUSH1 0x3F ADD AND DUP2 ADD SWAP1 DUP4 DUP3 GT DUP2 DUP4 LT OR ISZERO PUSH2 0x4EB JUMPI PUSH2 0x4EB PUSH2 0x41D JUMP JUMPDEST DUP2 PUSH1 0x40 MSTORE DUP3 DUP2 MSTORE DUP9 PUSH1 0x20 DUP5 DUP8 ADD ADD GT ISZERO PUSH2 0x503 JUMPI PUSH0 DUP1 REVERT JUMPDEST DUP3 PUSH1 0x20 DUP7 ADD PUSH1 0x20 DUP4 ADD CALLDATACOPY PUSH0 PUSH1 0x20 DUP5 DUP4 ADD ADD MSTORE DUP1 SWAP6 POP POP POP POP POP POP SWAP3 POP SWAP3 SWAP1 POP JUMP JUMPDEST PUSH1 0x1 DUP2 DUP2 SHR SWAP1 DUP3 AND DUP1 PUSH2 0x538 JUMPI PUSH1 0x7F DUP3 AND SWAP2 POP JUMPDEST PUSH1 0x20 DUP3 LT DUP2 SUB PUSH2 0x56F JUMPI PUSH32 0x4E487B7100000000000000000000000000000000000000000000000000000000 PUSH0 MSTORE PUSH1 0x22 PUSH1 0x4 MSTORE PUSH1 0x24 PUSH0 REVERT JUMPDEST POP SWAP2 SWAP1 POP JUMP JUMPDEST PUSH1 0x1F DUP3 GT ISZERO PUSH2 0x238 JUMPI DUP1 PUSH0 MSTORE PUSH1 0x20 PUSH0 KECCAK256 PUSH1 0x1F DUP5 ADD PUSH1 0x5 SHR DUP2 ADD PUSH1 0x20 DUP6 LT ISZERO PUSH2 0x59A JUMPI POP DUP1 JUMPDEST PUSH1 0x1F DUP5 ADD PUSH1 0x5 SHR DUP3 ADD SWAP2 POP JUMPDEST DUP2 DUP2 LT ISZERO PUSH2 0x5B9 JUMPI PUSH0 DUP2 SSTORE PUSH1 0x1 ADD PUSH2 0x5A6 JUMP JUMPDEST POP POP POP POP POP JUMP JUMPDEST DUP2 MLOAD PUSH8 0xFFFFFFFFFFFFFFFF DUP2 GT ISZERO PUSH2 0x5DA JUMPI PUSH2 0x5DA PUSH2 0x41D JUMP JUMPDEST PUSH2 0x5EE DUP2 PUSH2 0x5E8 DUP5 SLOAD PUSH2 0x524 JUMP JUMPDEST DUP5 PUSH2 0x575 JUMP JUMPDEST PUSH1 0x20 DUP1 PUSH1 0x1F DUP4 GT PUSH1 0x1 DUP2 EQ PUSH2 0x640 JUMPI PUSH0 DUP5 ISZERO PUSH2 0x60A JUMPI POP DUP6 DUP4 ADD MLOAD JUMPDEST PUSH32 0xFFFFFFFFFFFFFFFFFFFFFFFFFFFFFFFFFFFFFFFFFFFFFFFFFFFFFFFFFFFFFFFF PUSH1 0x3 DUP7 SWAP1 SHL SHR NOT AND PUSH1 0x1 DUP6 SWAP1 SHL OR DUP6 SSTORE PUSH2 0x6D4 JUMP JUMPDEST PUSH0 DUP6 DUP2 MSTORE PUSH1 0x20 DUP2 KECCAK256 PUSH32 0xFFFFFFFFFFFFFFFFFFFFFFFFFFFFFFFFFFFFFFFFFFFFFFFFFFFFFFFFFFFFFFE0 DUP7 AND SWAP2 JUMPDEST DUP3 DUP2 LT ISZERO PUSH2 0x68C JUMPI DUP9 DUP7 ADD MLOAD DUP3 SSTORE SWAP5 DUP5 ADD SWAP5 PUSH1 0x1 SWAP1 SWAP2 ADD SWAP1 DUP5 ADD PUSH2 0x66D JUMP JUMPDEST POP DUP6 DUP3 LT ISZERO PUSH2 0x6C8 JUMPI DUP8 DUP6 ADD MLOAD PUSH32 0xFFFFFFFFFFFFFFFFFFFFFFFFFFFFFFFFFFFFFFFFFFFFFFFFFFFFFFFFFFFFFFFF PUSH1 0x3 DUP9 SWAP1 SHL PUSH1 0xF8 AND SHR NOT AND DUP2 SSTORE JUMPDEST POP POP PUSH1 0x1 DUP5 PUSH1 0x1 SHL ADD DUP6 SSTORE JUMPDEST POP POP POP POP POP POP JUMP INVALID LOG2 PUSH5 0x6970667358 0x22 SLT KECCAK256 SWAP3 0xC0 0xEC 0xEB 0x49 0xAA 0xB9 0xC6 0xB8 DUP7 0x5C DUP13 0xA8 0xD2 0xC 0x25 SWAP3 0xDE SWAP5 0xE4 PUSH26 0xCAF29F97ED0E3D427DE09764736F6C6343000816003300000000 "
				},
				"gasEstimates": {
					"creation": {
						"codeDepositCost": "362000",
						"executionCost": "infinite",
						"totalCost": "infinite"
					},
					"external": {
						"isRegistered(address)": "2516",
						"owner()": "2332",
						"registerVoter(address,string)": "infinite",
						"renounceOwnership()": "infinite",
						"transferOwnership(address)": "28310",
						"voterToCity(address)": "infinite"
					}
				},
				"methodIdentifiers": {
					"isRegistered(address)": "c3c5a547",
					"owner()": "8da5cb5b",
					"registerVoter(address,string)": "ebbb4f84",
					"renounceOwnership()": "715018a6",
					"transferOwnership(address)": "f2fde38b",
					"voterToCity(address)": "2146671f"
				}
			},
			"storageLayout": {
				"storage": [
					{
						"astId": 8,
						"contract": "contracts/Title.sol:TitleRegistry",
						"label": "_owner",
						"offset": 0,
						"slot": "0",
						"type": "t_address"
					},
					{
						"astId": 178,
						"contract": "contracts/Title.sol:TitleRegistry",
						"label": "isRegistered",
						"offset": 0,
						"slot": "1",
						"type": "t_mapping(t_address,t_bool)"
					},
					{
						"astId": 182,
						"contract": "contracts/Title.sol:TitleRegistry",
						"label": "voterToCity",
						"offset": 0,
						"slot": "2",
						"type": "t_mapping(t_address,t_string_storage)"
					}
				],
				"types": {
					"t_address": {
						"encoding": "inplace",
						"label": "address",
						"numberOfBytes": "20"
					},
					"t_bool": {
						"encoding": "inplace",
						"label": "bool",
						"numberOfBytes": "1"
					},
					"t_mapping(t_address,t_bool)": {
						"encoding": "mapping",
						"key": "t_address",
						"label": "mapping(address => bool)",
						"numberOfBytes": "32",
						"value": "t_bool"
					},
					"t_mapping(t_address,t_string_storage)": {
						"encoding": "mapping",
						"key": "t_address",
						"label": "mapping(address => string)",
						"numberOfBytes": "32",
						"value": "t_string_storage"
					},
					"t_string_storage": {
						"encoding": "bytes",
						"label": "string",
						"numberOfBytes": "32"
					}
				}
			},
			"userdoc": {
				"kind": "user",
				"methods": {},
				"version": 1
			}
		}
	}
}